{
  "_format": "hh-sol-artifact-1",
  "contractName": "BaseGridEscrow",
  "sourceName": "contracts/BaseGridEscrow.sol",
  "abi": [
    {
      "inputs": [],
      "stateMutability": "nonpayable",
      "type": "constructor"
    },
    {
      "anonymous": false,
      "inputs": [
        {
          "indexed": true,
          "internalType": "uint256",
          "name": "taskId",
          "type": "uint256"
        },
        {
          "indexed": true,
          "internalType": "address",
          "name": "depositor",
          "type": "address"
        },
        {
          "indexed": false,
          "internalType": "uint256",
          "name": "amount",
          "type": "uint256"
        }
      ],
      "name": "Deposited",
      "type": "event"
    },
    {
      "anonymous": false,
      "inputs": [
        {
          "indexed": true,
          "internalType": "uint256",
          "name": "taskId",
          "type": "uint256"
        },
        {
          "indexed": true,
          "internalType": "address",
          "name": "refundee",
          "type": "address"
        },
        {
          "indexed": false,
          "internalType": "uint256",
          "name": "amount",
          "type": "uint256"
        }
      ],
      "name": "Refunded",
      "type": "event"
    },
    {
      "anonymous": false,
      "inputs": [
        {
          "indexed": true,
          "internalType": "uint256",
          "name": "taskId",
          "type": "uint256"
        },
        {
          "indexed": true,
          "internalType": "address",
          "name": "payee",
          "type": "address"
        },
        {
          "indexed": false,
          "internalType": "uint256",
          "name": "amount",
          "type": "uint256"
        }
      ],
      "name": "Released",
      "type": "event"
    },
    {
      "inputs": [
        {
          "internalType": "uint256",
          "name": "taskId",
          "type": "uint256"
        }
      ],
      "name": "deposit",
      "outputs": [],
      "stateMutability": "payable",
      "type": "function"
    },
    {
      "inputs": [
        {
          "internalType": "uint256",
          "name": "",
          "type": "uint256"
        }
      ],
      "name": "deposits",
      "outputs": [
        {
          "internalType": "uint256",
          "name": "",
          "type": "uint256"
        }
      ],
      "stateMutability": "view",
      "type": "function"
    },
    {
      "inputs": [],
      "name": "owner",
      "outputs": [
        {
          "internalType": "address",
          "name": "",
          "type": "address"
        }
      ],
      "stateMutability": "view",
      "type": "function"
    },
    {
      "inputs": [
        {
          "internalType": "uint256",
          "name": "taskId",
          "type": "uint256"
        },
        {
          "internalType": "address payable",
          "name": "refundee",
          "type": "address"
        }
      ],
      "name": "refund",
      "outputs": [],
      "stateMutability": "nonpayable",
      "type": "function"
    },
    {
      "inputs": [
        {
          "internalType": "uint256",
          "name": "taskId",
          "type": "uint256"
        },
        {
          "internalType": "address payable",
          "name": "payee",
          "type": "address"
        }
      ],
      "name": "release",
      "outputs": [],
      "stateMutability": "nonpayable",
      "type": "function"
    },
    {
      "inputs": [
        {
          "internalType": "address",
          "name": "_taskManager",
          "type": "address"
        }
      ],
      "name": "setTaskManager",
      "outputs": [],
      "stateMutability": "nonpayable",
      "type": "function"
    },
    {
      "inputs": [],
      "name": "taskManager",
      "outputs": [
        {
          "internalType": "address",
          "name": "",
          "type": "address"
        }
      ],
      "stateMutability": "view",
      "type": "function"
    }
  ],
  "bytecode": "0x608060405234801561001057600080fd5b50600080546001600160a01b031916331790556106be806100326000396000f3fe6080604052600436106100705760003560e01c80638da5cb5b1161004e5780638da5cb5b146100d7578063a50a640e14610114578063b02c43d014610134578063b6b55f251461016f57600080fd5b8063327d0a60146100755780637ad226dc146100975780638124fea6146100b7575b600080fd5b34801561008157600080fd5b506100956100903660046105bd565b610182565b005b3480156100a357600080fd5b506100956100b23660046105e1565b610203565b3480156100c357600080fd5b506100956100d23660046105e1565b610368565b3480156100e357600080fd5b506000546100f7906001600160a01b031681565b6040516001600160a01b0390911681526020015b60405180910390f35b34801561012057600080fd5b506001546100f7906001600160a01b031681565b34801561014057600080fd5b5061016161014f366004610611565b60026020526000908152604090205481565b60405190815260200161010b565b61009561017d366004610611565b6104c0565b6000546001600160a01b031633146101e15760405162461bcd60e51b815260206004820152601e60248201527f4f6e6c79206f776e65722063616e20736574205461736b4d616e61676572000060448201526064015b60405180910390fd5b600180546001600160a01b0319166001600160a01b0392909216919091179055565b6001546001600160a01b0316331461022d5760405162461bcd60e51b81526004016101d89061062a565b6000828152600260205260409020548061027e5760405162461bcd60e51b8152602060048201526012602482015271139bc8199d5b991cc81d1bc81c99599d5b9960721b60448201526064016101d8565b600083815260026020526040808220829055516001600160a01b0384169083908381818185875af1925050503d80600081146102d6576040519150601f19603f3d011682016040523d82523d6000602084013e6102db565b606091505b505090508061031e5760405162461bcd60e51b815260206004820152600f60248201526e151c985b9cd9995c8819985a5b1959608a1b60448201526064016101d8565b826001600160a01b0316847f7ca5472b7ea78c2c0141c5a12ee6d170cf4ce8ed06be3d22c8252ddfc7a6a2c48460405161035a91815260200190565b60405180910390a350505050565b6001546001600160a01b031633146103925760405162461bcd60e51b81526004016101d89061062a565b600082815260026020526040902054806103e45760405162461bcd60e51b81526020600482015260136024820152724e6f2066756e647320746f2072656c6561736560681b60448201526064016101d8565b600083815260026020526040808220829055516001600160a01b0384169083908381818185875af1925050503d806000811461043c576040519150601f19603f3d011682016040523d82523d6000602084013e610441565b606091505b50509050806104845760405162461bcd60e51b815260206004820152600f60248201526e151c985b9cd9995c8819985a5b1959608a1b60448201526064016101d8565b826001600160a01b0316847f3bfce8de0db7450cc169b94323c210e69a36c6a4a58c9f5d96bec4973adce3928460405161035a91815260200190565b6001546001600160a01b031633146104ea5760405162461bcd60e51b81526004016101d89061062a565b600034116105485760405162461bcd60e51b815260206004820152602560248201527f4465706f73697420616d6f756e74206d75737420626520677265617465722074604482015264068616e20360dc1b60648201526084016101d8565b60008181526002602052604081208054349290610566908490610661565b9091555050604051348152329082907f1599c0fcf897af5babc2bfcf707f5dc050f841b044d97c3251ecec35b9abf80b9060200160405180910390a350565b6001600160a01b03811681146105ba57600080fd5b50565b6000602082840312156105cf57600080fd5b81356105da816105a5565b9392505050565b600080604083850312156105f457600080fd5b823591506020830135610606816105a5565b809150509250929050565b60006020828403121561062357600080fd5b5035919050565b6020808252601e908201527f4f6e6c79205461736b4d616e616765722063616e2063616c6c20746869730000604082015260600190565b8082018082111561068257634e487b7160e01b600052601160045260246000fd5b9291505056fea264697066735822122082bce574cedc5aecb83f55b09d55eb6f6ddc542453467a0564bae95a59849dd064736f6c63430008180033",
  "linkReferences": {},
  "deployedLinkReferences": {}
}