{
  "_format": "hh-sol-artifact-1",
  "contractName": "BaseGridTaskManager",
  "sourceName": "contracts/BaseGridTaskManager.sol",
  "abi": [
    {
      "inputs": [
        {
          "internalType": "address",
          "name": "_escrow",
          "type": "address"
        },
        {
          "internalType": "address",
          "name": "_reputation",
          "type": "address"
        }
      ],
      "stateMutability": "nonpayable",
      "type": "constructor"
    },
    {
      "anonymous": false,
      "inputs": [
        {
          "indexed": true,
          "internalType": "uint256",
          "name": "taskId",
          "type": "uint256"
        },
        {
          "indexed": true,
          "internalType": "address",
          "name": "worker",
          "type": "address"
        }
      ],
      "name": "TaskAccepted",
      "type": "event"
    },
    {
      "anonymous": false,
      "inputs": [
        {
          "indexed": true,
          "internalType": "uint256",
          "name": "taskId",
          "type": "uint256"
        }
      ],
      "name": "TaskApproved",
      "type": "event"
    },
    {
      "anonymous": false,
      "inputs": [
        {
          "indexed": true,
          "internalType": "uint256",
          "name": "taskId",
          "type": "uint256"
        }
      ],
      "name": "TaskCancelled",
      "type": "event"
    },
    {
      "anonymous": false,
      "inputs": [
        {
          "indexed": true,
          "internalType": "uint256",
          "name": "taskId",
          "type": "uint256"
        },
        {
          "indexed": true,
          "internalType": "address",
          "name": "creator",
          "type": "address"
        },
        {
          "indexed": false,
          "internalType": "uint256",
          "name": "reward",
          "type": "uint256"
        }
      ],
      "name": "TaskCreated",
      "type": "event"
    },
    {
      "anonymous": false,
      "inputs": [
        {
          "indexed": true,
          "internalType": "uint256",
          "name": "taskId",
          "type": "uint256"
        }
      ],
      "name": "TaskFunded",
      "type": "event"
    },
    {
      "anonymous": false,
      "inputs": [
        {
          "indexed": true,
          "internalType": "uint256",
          "name": "taskId",
          "type": "uint256"
        }
      ],
      "name": "TaskRejected",
      "type": "event"
    },
    {
      "anonymous": false,
      "inputs": [
        {
          "indexed": true,
          "internalType": "uint256",
          "name": "taskId",
          "type": "uint256"
        },
        {
          "indexed": false,
          "internalType": "string",
          "name": "submissionUri",
          "type": "string"
        }
      ],
      "name": "TaskSubmitted",
      "type": "event"
    },
    {
      "inputs": [
        {
          "internalType": "uint256",
          "name": "taskId",
          "type": "uint256"
        }
      ],
      "name": "acceptTask",
      "outputs": [],
      "stateMutability": "nonpayable",
      "type": "function"
    },
    {
      "inputs": [
        {
          "internalType": "uint256",
          "name": "taskId",
          "type": "uint256"
        }
      ],
      "name": "approveTask",
      "outputs": [],
      "stateMutability": "nonpayable",
      "type": "function"
    },
    {
      "inputs": [
        {
          "internalType": "uint256",
          "name": "taskId",
          "type": "uint256"
        }
      ],
      "name": "cancelTask",
      "outputs": [],
      "stateMutability": "nonpayable",
      "type": "function"
    },
    {
      "inputs": [
        {
          "internalType": "uint256",
          "name": "reward",
          "type": "uint256"
        },
        {
          "internalType": "uint256",
          "name": "deadline",
          "type": "uint256"
        },
        {
          "internalType": "string",
          "name": "dataUri",
          "type": "string"
        }
      ],
      "name": "createTask",
      "outputs": [
        {
          "internalType": "uint256",
          "name": "",
          "type": "uint256"
        }
      ],
      "stateMutability": "nonpayable",
      "type": "function"
    },
    {
      "inputs": [],
      "name": "escrow",
      "outputs": [
        {
          "internalType": "contract IBaseGridEscrow",
          "name": "",
          "type": "address"
        }
      ],
      "stateMutability": "view",
      "type": "function"
    },
    {
      "inputs": [
        {
          "internalType": "uint256",
          "name": "taskId",
          "type": "uint256"
        }
      ],
      "name": "fundTask",
      "outputs": [],
      "stateMutability": "payable",
      "type": "function"
    },
    {
      "inputs": [
        {
          "internalType": "uint256",
          "name": "taskId",
          "type": "uint256"
        }
      ],
      "name": "rejectTask",
      "outputs": [],
      "stateMutability": "nonpayable",
      "type": "function"
    },
    {
      "inputs": [],
      "name": "reputation",
      "outputs": [
        {
          "internalType": "contract IBaseGridReputation",
          "name": "",
          "type": "address"
        }
      ],
      "stateMutability": "view",
      "type": "function"
    },
    {
      "inputs": [
        {
          "internalType": "uint256",
          "name": "taskId",
          "type": "uint256"
        },
        {
          "internalType": "string",
          "name": "submissionUri",
          "type": "string"
        }
      ],
      "name": "submitTask",
      "outputs": [],
      "stateMutability": "nonpayable",
      "type": "function"
    },
    {
      "inputs": [],
      "name": "taskCount",
      "outputs": [
        {
          "internalType": "uint256",
          "name": "",
          "type": "uint256"
        }
      ],
      "stateMutability": "view",
      "type": "function"
    },
    {
      "inputs": [
        {
          "internalType": "uint256",
          "name": "",
          "type": "uint256"
        }
      ],
      "name": "tasks",
      "outputs": [
        {
          "internalType": "uint256",
          "name": "id",
          "type": "uint256"
        },
        {
          "internalType": "address payable",
          "name": "creator",
          "type": "address"
        },
        {
          "internalType": "address payable",
          "name": "worker",
          "type": "address"
        },
        {
          "internalType": "uint256",
          "name": "reward",
          "type": "uint256"
        },
        {
          "internalType": "uint256",
          "name": "deadline",
          "type": "uint256"
        },
        {
          "internalType": "enum BaseGridTaskManager.TaskStatus",
          "name": "status",
          "type": "uint8"
        },
        {
          "internalType": "string",
          "name": "dataUri",
          "type": "string"
        },
        {
          "internalType": "string",
          "name": "submissionUri",
          "type": "string"
        }
      ],
      "stateMutability": "view",
      "type": "function"
    }
  ],
  "bytecode": "0x608060405234801561001057600080fd5b5060405161146938038061146983398101604081905261002f9161007c565b600280546001600160a01b039384166001600160a01b031991821617909155600380549290931691161790556100af565b80516001600160a01b038116811461007757600080fd5b919050565b6000806040838503121561008f57600080fd5b61009883610060565b91506100a660208401610060565b90509250929050565b6113ab806100be6000396000f3fe60806040526004361061009c5760003560e01c806382b350171161006457806382b35017146101435780638d97767214610176578063b6cb58a5146101aa578063c52164c6146101c0578063d1ff21c2146101f8578063e2fdcc171461020b57600080fd5b80630a07fae6146100a15780631bf6912d146100c3578063776bae68146100e35780637d81b40b146101035780637eec20a814610123575b600080fd5b3480156100ad57600080fd5b506100c16100bc366004610f1a565b61022b565b005b3480156100cf57600080fd5b506100c16100de366004610f1a565b610483565b3480156100ef57600080fd5b506100c16100fe366004610f7c565b610582565b34801561010f57600080fd5b506100c161011e366004610f1a565b6106a9565b34801561012f57600080fd5b506100c161013e366004610f1a565b610837565b34801561014f57600080fd5b5061016361015e366004610fc8565b610a3c565b6040519081526020015b60405180910390f35b34801561018257600080fd5b50610196610191366004610f1a565b610c64565b60405161016d989796959493929190611077565b3480156101b657600080fd5b5061016360005481565b3480156101cc57600080fd5b506003546101e0906001600160a01b031681565b6040516001600160a01b03909116815260200161016d565b6100c1610206366004610f1a565b610dca565b34801561021757600080fd5b506002546101e0906001600160a01b031681565b60008181526001602052604090206004600582015460ff1660078111156102545761025461101b565b1461029b5760405162461bcd60e51b815260206004820152601260248201527115185cdac81b9bdd081cdd589b5a5d1d195960721b60448201526064015b60405180910390fd5b60018101546001600160a01b031633146102f75760405162461bcd60e51b815260206004820152601860248201527f4f6e6c792063726561746f722063616e20617070726f766500000000000000006044820152606401610292565b6005818101805460ff1916909117905560028054908201546040516340927f5360e11b8152600481018590526001600160a01b039182166024820152911690638124fea690604401600060405180830381600087803b15801561035957600080fd5b505af115801561036d573d6000803e3d6000fd5b5050505060058101805460ff19166006179055600354600282015460405163d3ec35b760e01b81526001600160a01b039182166004820152600a602482015291169063d3ec35b790604401600060405180830381600087803b1580156103d257600080fd5b505af11580156103e6573d6000803e3d6000fd5b5050600354600184015460405163d3ec35b760e01b81526001600160a01b039182166004820152600560248201529116925063d3ec35b79150604401600060405180830381600087803b15801561043c57600080fd5b505af1158015610450573d6000803e3d6000fd5b50506040518492507f3e9d27a1c2a828db29e4b2a17fbd1bc70201ef21aec4f74b9fa051b02e38e3f09150600090a25050565b60008181526001602052604090206002600582015460ff1660078111156104ac576104ac61101b565b146104e95760405162461bcd60e51b815260206004820152600d60248201526c2a30b9b5903737ba1037b832b760991b6044820152606401610292565b8060040154421061052c5760405162461bcd60e51b815260206004820152600d60248201526c5061737420646561646c696e6560981b6044820152606401610292565b600281018054336001600160a01b0319909116811790915560058201805460ff1916600317905560405183907fc8717b61398fb9d7cacf49fe1e296b2f10e9711226b532842b6ffd642cb6a2c690600090a35050565b60008381526001602052604090206003600582015460ff1660078111156105ab576105ab61101b565b146105ec5760405162461bcd60e51b815260206004820152601160248201527015185cdac81b9bdd081858d8d95c1d1959607a1b6044820152606401610292565b60028101546001600160a01b031633146106485760405162461bcd60e51b815260206004820152601760248201527f4e6f74207468652061737369676e656420776f726b65720000000000000000006044820152606401610292565b6007810161065783858361119e565b5060058101805460ff1916600417905560405184907f6446ced08d52e8f0331d94dbe32ad91d577ec02d6d8ec44376b1517fcca598a79061069b908690869061125f565b60405180910390a250505050565b60008181526001602052604090206004600582015460ff1660078111156106d2576106d261101b565b146107145760405162461bcd60e51b815260206004820152601260248201527115185cdac81b9bdd081cdd589b5a5d1d195960721b6044820152606401610292565b60018101546001600160a01b031633146107705760405162461bcd60e51b815260206004820152601760248201527f4f6e6c792063726561746f722063616e2072656a6563740000000000000000006044820152606401610292565b60058101805460ff19166003179055604080516020810190915260008152600782019061079d908261128e565b506003546002820154604051635a35893b60e11b81526001600160a01b0391821660048201526005602482015291169063b46b127690604401600060405180830381600087803b1580156107f057600080fd5b505af1158015610804573d6000803e3d6000fd5b50506040518492507faaef6e71f9f214da5be1264a046941f4723a23100084c172759fc5d3239b01529150600090a25050565b6000818152600160208190526040909120908101546001600160a01b031633146108a35760405162461bcd60e51b815260206004820152601760248201527f4f6e6c792063726561746f722063616e2063616e63656c0000000000000000006044820152606401610292565b6000600582015460ff1660078111156108be576108be61101b565b14806108e257506002600582015460ff1660078111156108e0576108e061101b565b145b8061091357506003600582015460ff1660078111156109035761090361101b565b1480156109135750806004015442115b61094f5760405162461bcd60e51b815260206004820152600d60248201526c10d85b9b9bdd0818d85b98d95b609a1b6044820152606401610292565b6002600582015460ff16600781111561096a5761096a61101b565b148061098e57506003600582015460ff16600781111561098c5761098c61101b565b145b156109fe576002546001820154604051631eb489b760e21b8152600481018590526001600160a01b039182166024820152911690637ad226dc90604401600060405180830381600087803b1580156109e557600080fd5b505af11580156109f9573d6000803e3d6000fd5b505050505b60058101805460ff1916600717905560405182907fc6eacc3aa5b2aa77b5a826b832a804ca0b71830ec74f9aa57a15edd978c31ed690600090a25050565b6000428411610a8d5760405162461bcd60e51b815260206004820152601e60248201527f446561646c696e65206d75737420626520696e207468652066757475726500006044820152606401610292565b60008511610add5760405162461bcd60e51b815260206004820152601d60248201527f526577617264206d7573742062652067726561746572207468616e20300000006044820152606401610292565b600080549080610aec8361134e565b90915550506000805460408051610100810182528281523360208201529081018390526060810188905260808101879052909160a0820190815260200185858080601f01602080910402602001604051908101604052809392919081815260200183838082843760009201829052509385525050604080516020808201835284825294850152858352600180855292819020855181559385015184840180546001600160a01b03199081166001600160a01b039384161790915591860151600286018054909316911617905550606083015160038301556080830151600483015560a08301516005830180549192909160ff191690836007811115610bf357610bf361101b565b021790555060c08201516006820190610c0c908261128e565b5060e08201516007820190610c21908261128e565b505060405187815233915082907f6cf53aa7292e664152c2ea948c3b3c95d4b05c36daeb2626d0293473c4a4a1539060200160405180910390a395945050505050565b600160208190526000918252604090912080549181015460028201546003830154600484015460058501546006860180546001600160a01b039687169796909516959394929360ff90921692610cb990611113565b80601f0160208091040260200160405190810160405280929190818152602001828054610ce590611113565b8015610d325780601f10610d0757610100808354040283529160200191610d32565b820191906000526020600020905b815481529060010190602001808311610d1557829003601f168201915b505050505090806007018054610d4790611113565b80601f0160208091040260200160405190810160405280929190818152602001828054610d7390611113565b8015610dc05780601f10610d9557610100808354040283529160200191610dc0565b820191906000526020600020905b815481529060010190602001808311610da357829003601f168201915b5050505050905088565b600081815260016020526040812090600582015460ff166007811115610df257610df261101b565b14610e305760405162461bcd60e51b815260206004820152600e60248201526d496e76616c69642073746174757360901b6044820152606401610292565b80600301543414610e7b5760405162461bcd60e51b8152602060048201526015602482015274125b98dbdc9c9958dd08199d5b9908185b5bdd5b9d605a1b6044820152606401610292565b60058101805460ff191660029081179091555460405163b6b55f2560e01b8152600481018490526001600160a01b039091169063b6b55f259034906024016000604051808303818588803b158015610ed257600080fd5b505af1158015610ee6573d6000803e3d6000fd5b50506040518593507f270d278a762028490aa06b535b366746757a7ef7f6b1c26ae10c2bcc3ce0baae925060009150a25050565b600060208284031215610f2c57600080fd5b5035919050565b60008083601f840112610f4557600080fd5b50813567ffffffffffffffff811115610f5d57600080fd5b602083019150836020828501011115610f7557600080fd5b9250929050565b600080600060408486031215610f9157600080fd5b83359250602084013567ffffffffffffffff811115610faf57600080fd5b610fbb86828701610f33565b9497909650939450505050565b60008060008060608587031215610fde57600080fd5b8435935060208501359250604085013567ffffffffffffffff81111561100357600080fd5b61100f87828801610f33565b95989497509550505050565b634e487b7160e01b600052602160045260246000fd5b6000815180845260005b818110156110575760208185018101518683018201520161103b565b506000602082860101526020601f19601f83011685010191505092915050565b8881526001600160a01b0388811660208301528716604082015260608101869052608081018590526000610100600886106110c257634e487b7160e01b600052602160045260246000fd5b8560a08401528060c08401526110da81840186611031565b905082810360e08401526110ee8185611031565b9b9a5050505050505050505050565b634e487b7160e01b600052604160045260246000fd5b600181811c9082168061112757607f821691505b60208210810361114757634e487b7160e01b600052602260045260246000fd5b50919050565b601f821115611199576000816000526020600020601f850160051c810160208610156111765750805b601f850160051c820191505b8181101561119557828155600101611182565b5050505b505050565b67ffffffffffffffff8311156111b6576111b66110fd565b6111ca836111c48354611113565b8361114d565b6000601f8411600181146111fe57600085156111e65750838201355b600019600387901b1c1916600186901b178355611258565b600083815260209020601f19861690835b8281101561122f578685013582556020948501946001909201910161120f565b508682101561124c5760001960f88860031b161c19848701351681555b505060018560011b0183555b5050505050565b60208152816020820152818360408301376000818301604090810191909152601f909201601f19160101919050565b815167ffffffffffffffff8111156112a8576112a86110fd565b6112bc816112b68454611113565b8461114d565b602080601f8311600181146112f157600084156112d95750858301515b600019600386901b1c1916600185901b178555611195565b600085815260208120601f198616915b8281101561132057888601518255948401946001909101908401611301565b508582101561133e5787850151600019600388901b60f8161c191681555b5050505050600190811b01905550565b60006001820161136e57634e487b7160e01b600052601160045260246000fd5b506001019056fea26469706673582212206585af801333f2ad788b791c67f6c22f3171cffeb8fb916c0f1a31f2dcd2ea3664736f6c63430008180033",
  "linkReferences": {},
  "deployedLinkReferences": {}
}