{
  "_format": "hh-sol-artifact-1",
  "contractName": "BaseGridReputation",
  "sourceName": "contracts/BaseGridReputation.sol",
  "abi": [
    {
      "inputs": [],
      "stateMutability": "nonpayable",
      "type": "constructor"
    },
    {
      "anonymous": false,
      "inputs": [
        {
          "indexed": true,
          "internalType": "address",
          "name": "user",
          "type": "address"
        },
        {
          "indexed": false,
          "internalType": "uint256",
          "name": "newScore",
          "type": "uint256"
        }
      ],
      "name": "ScoreDecreased",
      "type": "event"
    },
    {
      "anonymous": false,
      "inputs": [
        {
          "indexed": true,
          "internalType": "address",
          "name": "user",
          "type": "address"
        },
        {
          "indexed": false,
          "internalType": "uint256",
          "name": "newScore",
          "type": "uint256"
        }
      ],
      "name": "ScoreIncreased",
      "type": "event"
    },
    {
      "inputs": [
        {
          "internalType": "address",
          "name": "user",
          "type": "address"
        },
        {
          "internalType": "uint256",
          "name": "amount",
          "type": "uint256"
        }
      ],
      "name": "decreaseScore",
      "outputs": [],
      "stateMutability": "nonpayable",
      "type": "function"
    },
    {
      "inputs": [
        {
          "internalType": "address",
          "name": "user",
          "type": "address"
        }
      ],
      "name": "getScore",
      "outputs": [
        {
          "internalType": "uint256",
          "name": "",
          "type": "uint256"
        }
      ],
      "stateMutability": "view",
      "type": "function"
    },
    {
      "inputs": [
        {
          "internalType": "address",
          "name": "user",
          "type": "address"
        },
        {
          "internalType": "uint256",
          "name": "amount",
          "type": "uint256"
        }
      ],
      "name": "increaseScore",
      "outputs": [],
      "stateMutability": "nonpayable",
      "type": "function"
    },
    {
      "inputs": [],
      "name": "owner",
      "outputs": [
        {
          "internalType": "address",
          "name": "",
          "type": "address"
        }
      ],
      "stateMutability": "view",
      "type": "function"
    },
    {
      "inputs": [
        {
          "internalType": "address",
          "name": "",
          "type": "address"
        }
      ],
      "name": "scores",
      "outputs": [
        {
          "internalType": "uint256",
          "name": "",
          "type": "uint256"
        }
      ],
      "stateMutability": "view",
      "type": "function"
    },
    {
      "inputs": [
        {
          "internalType": "address",
          "name": "_taskManager",
          "type": "address"
        }
      ],
      "name": "setTaskManager",
      "outputs": [],
      "stateMutability": "nonpayable",
      "type": "function"
    },
    {
      "inputs": [],
      "name": "taskManager",
      "outputs": [
        {
          "internalType": "address",
          "name": "",
          "type": "address"
        }
      ],
      "stateMutability": "view",
      "type": "function"
    }
  ],
  "bytecode": "0x608060405234801561001057600080fd5b50600080546001600160a01b031916331790556104a2806100326000396000f3fe608060405234801561001057600080fd5b506004361061007d5760003560e01c8063a50a640e1161005b578063a50a640e146100f5578063b46b127614610108578063d3ec35b71461011b578063d47875d01461012e57600080fd5b8063327d0a601461008257806376dd110f146100975780638da5cb5b146100ca575b600080fd5b6100956100903660046103de565b610157565b005b6100b76100a53660046103de565b60026020526000908152604090205481565b6040519081526020015b60405180910390f35b6000546100dd906001600160a01b031681565b6040516001600160a01b0390911681526020016100c1565b6001546100dd906001600160a01b031681565b610095610116366004610400565b6101d8565b610095610129366004610400565b6102f1565b6100b761013c3660046103de565b6001600160a01b031660009081526002602052604090205490565b6000546001600160a01b031633146101b65760405162461bcd60e51b815260206004820152601e60248201527f4f6e6c79206f776e65722063616e20736574205461736b4d616e61676572000060448201526064015b60405180910390fd5b600180546001600160a01b0319166001600160a01b0392909216919091179055565b6001546001600160a01b031633146102325760405162461bcd60e51b815260206004820152601e60248201527f4f6e6c79205461736b4d616e616765722063616e2063616c6c2074686973000060448201526064016101ad565b6001600160a01b038216600090815260026020526040902054811015610285576001600160a01b0382166000908152600260205260408120805483929061027a908490610440565b9091555061029f9050565b6001600160a01b0382166000908152600260205260408120555b6001600160a01b0382166000818152600260209081526040918290205491519182527fe0f78209bd870d73ceb87db4fae001fdbbd9d8854fcb23ff048701092f3b413c91015b60405180910390a25050565b6001546001600160a01b0316331461034b5760405162461bcd60e51b815260206004820152601e60248201527f4f6e6c79205461736b4d616e616765722063616e2063616c6c2074686973000060448201526064016101ad565b6001600160a01b03821660009081526002602052604081208054839290610373908490610459565b90915550506001600160a01b0382166000818152600260209081526040918290205491519182527f602f8a8cfe9343f509fa49cc6750843ea138244c517cbf727b4be40356ebd9d891016102e5565b80356001600160a01b03811681146103d957600080fd5b919050565b6000602082840312156103f057600080fd5b6103f9826103c2565b9392505050565b6000806040838503121561041357600080fd5b61041c836103c2565b946020939093013593505050565b634e487b7160e01b600052601160045260246000fd5b818103818111156104535761045361042a565b92915050565b808201808211156104535761045361042a56fea26469706673582212204309e6dc530e77f41216b49d9d84153cf69eb24f47144e0b6431337d542107b564736f6c63430008180033",
  "linkReferences": {},
  "deployedLinkReferences": {}
}